:020000040800F2
:10000000000003204D0500089D0500089D0500081F
:100010009D0500089D0500089D05000800000000E2
:100020000000000000000000000000009D05000826
:100030009D050008000000009D0500089D050008C2
:100040009D0500089D0500089D0500089D05000808
:100050009D0500089D0500089D0500089D050008F8
:100060009D0500089D0500089D0500089D050008E8
:100070009D0500089D0500089D0500089D050008D8
:100080009D0500089D0500089D0500089D050008C8
:100090009D0500089D0500089D0500089D050008B8
:1000A0009D0500089D0500089D0500089D050008A8
:1000B0009D0500089D0500089D0500089D05000898
:1000C0009D0500089D0500089D0500089D05000888
:1000D0009D0500089D0500089D0500089D05000878
:1000E0009D0500089D0500089D0500089D05000868
:1000F0009D0500089D0500089D0500089D05000858
:100100009D0500089D0500089D0500089D05000847
:100110009D0500089D0500089D0500089D05000837
:100120009D0500089D0500089D0500089D05000827
:100130009D0500089D0500089D0500089D05000817
:100140009D0500089D0500089D0500089D05000807
:100150009D0500089D0500089D0500089D050008F7
:100160009D0500089D0500089D0500089D050008E7
:100170009D0500089D0500089D0500080000000081
:100180009D0500089D0500089D0500089D050008C7
:100190009D0500089D0500089D0500089D050008B7
:0C01A0009D0500089D0500089D05000855
:1001AC000348044B834202D0034B03B118477047FA
:1001BC000000002000000020000000000548064B55
:1001CC001B1AD90F01EBA301491002D0034B03B149
:1001DC0018477047000000200000002000000000BD
:1001EC0010B5064C237843B9FFF7DAFF044B13B173
:1001FC000448AFF300800123237010BD00000020E1
:10020C0000000000E805000808B5054B1BB10549C6
:10021C000548AFF30080BDE80840FFF7CFBF00BF33
:10022C000000000004000020E8050008034AD2F892
:10023C00883043F47003C2F88830704700ED00E05A
:10024C00064A936843F080439360044B1B6813F099
:10025C00020FFAD0014BD86C80B2704700200140DD
:10026C0008B500F065F800F041F900F0CDF8002376
:10027C004FF0804253622B4A138031E003323EE050
:10028C0000234FF080414B6213F0FF0316D0264938
:10029C004A63012B15D924498A63022B14D92349AB
:1002AC004A63032B13D921498A63042B12D91F49A2
:1002BC00CA63052B11D91D4B1A6411E01A4B00228D
:1002CC005A63194B00229A63184B00225A63174B3E
:1002DC0000229A63154B0022DA63144B00221A6435
:1002EC00FFF7AEFF0F4B1880B0F57A7F01D20022DA
:1002FC001A800C4B1A8822B1B2F57A72BED4C2F3B2
:10030C008F024FF080435B6AC3F3C03101FA83F371
:10031C005B10B5D4062BB7DD4FF080430C2159622E
:10032C000623B4E71C0000200040014000000140FF
:10033C00334A136B43F013031363324B1A6822F0E6
:10034C00030242F002021A60DA6822F0030242F061
:10035C000102DA601A6A22F00F0242F001021A62FC
:10036C0003F580631A6822F0C00242F080021A6022
:10037C00DA6822F0C00242F04002DA601A6A22F413
:10038C00704242F480521A621A6842F00C021A60EF
:10039C00DA6822F00C02DA6003F540631A6822F086
:1003AC003C2222F44C021A601A6842F0282242F4D1
:1003BC0008021A601A6A22F4700242F440121A629D
:1003CC001A6A22F0706242F040721A625A6A22F083
:1003DC00F00242F010025A625A6A22F4704242F45D
:1003EC0080525A625A6A22F4700242F480125A62A3
:1003FC005A6A22F0706242F080725A62704700BFF3
:10040C00003802400000024030B4374B1A6C42F006
:10041C0001021A645A6C42F001125A644FF0804384
:10042C0000229A624FF0FF32DA629A6922F440722B
:10043C0022F0030242F4807242F001029A619A693E
:10044C0042F4704242F0F0029A619A6822F007027C
:10045C0042F003029A601A6842F001021A6003F536
:10046C00A033B3259D6240F2E734DC629A6922F432
:10047C00E04222F0700246F2600002439A619A69EF
:10048C0040F608010A439A611A6A42F011021A6294
:10049C001A6842F081021A60A3F580439D62DC6207
:1004AC009A6922F4E04222F0700202439A61DA69FE
:1004BC0022F4E04222F070020243DA619A690A43A4
:1004CC009A61DA690A43DA611A6A42F4885242F094
:1004DC0011021A625A6C42F400425A641A6842F0D1
:1004EC0081021A6030BC704700380240114A536CCC
:1004FC0043F480735364104B9A6822F001029A60A3
:10050C000E494A6842F480324A60DA6A22F4700278
:10051C00DA625A6B22F01F0242F009025A631A691E
:10052C0022F0605242F000521A619A6842F00102C5
:10053C009A607047003802400020014000230140BF
:10054C00DFF834D00D480E490E4A002302E0D4588F
:10055C00C4500433C4188C42F9D30B4A0B4C0023FF
:10056C0001E013600432A242FBD3FFF75FFE00F000
:10057C0011F8FFF775FE7047000003200000002003
:10058C0000000020080600080000002020000020C9
:10059C00FEE7000070B50D4B0D4D5B1B9C1000264B
:1005AC00A64209D100F01AF80A4D0B4B5B1B9C10AC
:1005BC000026A64205D170BD55F8043B984701367C
:1005CC00EEE755F8043B98470136F2E700060008C1
:1005DC00000600080006000804060008F8B500BF75
:1005EC00F8BC08BC9E467047F8B500BFF8BC08BC08
:0405FC009E46704760
:0406000015020008D7
:04060400ED010008FC
:040000050800054D9D
:00000001FF
