:020000040800F2
:10000000000003208D020008DD020008DD02000868
:10001000DD020008DD020008DD020008000000002B
:10002000000000000000000000000000DD020008E9
:10003000DD02000800000000DD020008DD0200080B
:10004000DD020008DD020008DD020008DD02000814
:10005000DD020008DD020008DD020008DD02000804
:10006000DD020008DD020008DD020008DD020008F4
:10007000DD020008DD020008DD020008DD020008E4
:10008000DD020008DD020008DD020008DD020008D4
:10009000DD020008DD020008DD020008DD020008C4
:1000A000DD020008DD020008DD020008DD020008B4
:1000B000DD020008DD020008DD020008DD020008A4
:1000C000DD020008DD020008DD020008DD02000894
:1000D000DD020008DD020008DD020008DD02000884
:1000E000DD020008DD020008DD020008DD02000874
:1000F000DD020008DD020008DD020008DD02000864
:10010000DD020008DD020008DD020008DD02000853
:10011000DD020008DD020008DD020008DD02000843
:10012000DD020008DD020008DD020008DD02000833
:10013000DD020008DD020008DD020008DD02000823
:10014000DD020008DD020008DD020008DD02000813
:10015000DD020008DD020008DD020008DD02000803
:10016000DD020008DD020008DD020008DD020008F3
:10017000DD020008DD020008DD02000800000000CA
:10018000DD020008DD020008DD020008DD020008D3
:10019000DD020008DD020008DD020008DD020008C3
:0C01A000DD020008DD020008DD0200089E
:1001AC000348044B834202D0034B03B118477047FA
:1001BC000000002000000020000000000548064B55
:1001CC001B1AD90F01EBA301491002D0034B03B149
:1001DC0018477047000000200000002000000000BD
:1001EC0010B5064C237843B9FFF7DAFF044B13B173
:1001FC000448AFF300800123237010BD00000020E1
:10020C00000000002803000808B5054B1BB1054988
:10021C000548AFF30080BDE80840FFF7CFBF00BF33
:10022C00000000000400002028030008034AD2F854
:10023C00883043F47003C2F88830704700ED00E05A
:10024C000D4AD2F8303843F00203C2F830380B4B69
:10025C00D3F8002442F48042C3F800240022C3F8EF
:10026C000424D3F8082442F48042C3F808248022E2
:10027C00C3F81824FEE700BF003002400000024023
:10028C00DFF834D00D480E490E4A002302E0D45852
:10029C00C4500433C4188C42F9D30B4A0B4C0023C2
:1002AC0001E013600432A242FBD3FFF7BFFF00F062
:1002BC0011F8FFF7C5FF7047000003200000002075
:1002CC000000002048030008000000201C00002053
:1002DC00FEE7000070B50D4B0D4D5B1B9C1000260E
:1002EC00A64209D100F01AF80A4D0B4B5B1B9C106F
:1002FC000026A64205D170BD55F8043B984701363F
:10030C00EEE755F8043B98470136F2E74003000846
:10031C00400300084003000844030008F8B500BF80
:10032C00F8BC08BC9E467047F8B500BFF8BC08BCCA
:04033C009E46704722
:04034000150200089A
:04034400ED010008BF
:040000050800028D60
:00000001FF
