:020000040800F2
:1000000000000320D904000829050008290500087C
:10001000290500082905000829050008000000003E
:10002000000000000000000000000000290500089A
:10003000290500080000000029050008290500081E
:1000400029050008290500082905000829050008D8
:1000500029050008290500082905000829050008C8
:1000600029050008290500082905000829050008B8
:1000700029050008290500082905000829050008A8
:100080002905000829050008290500082905000898
:100090002905000829050008290500082905000888
:1000A0002905000829050008290500082905000878
:1000B0002905000829050008290500082905000868
:1000C0002905000829050008290500082905000858
:1000D0002905000829050008290500082905000848
:1000E0002905000829050008290500082905000838
:1000F0002905000829050008290500082905000828
:100100002905000829050008290500082905000817
:100110002905000829050008290500082905000807
:1001200029050008290500082905000829050008F7
:1001300029050008290500082905000829050008E7
:1001400029050008290500082905000829050008D7
:1001500029050008290500082905000829050008C7
:1001600029050008290500082905000829050008B7
:1001700029050008290500082905000800000000DD
:100180002905000829050008290500082905000897
:100190002905000829050008290500082905000887
:0C01A000290500082905000829050008B1
:1001AC000348044B834202D0034B03B118477047FA
:1001BC000000002000000020000000000548064B55
:1001CC001B1AD90F01EBA301491002D0034B03B149
:1001DC0018477047000000200000002000000000BD
:1001EC0010B5064C237843B9FFF7DAFF044B13B173
:1001FC000448AFF300800123237010BD00000020E1
:10020C00000000007405000808B5054B1BB105493A
:10021C000548AFF30080BDE80840FFF7CFBF00BF33
:10022C00000000000400002074050008034AD2F806
:10023C00883043F47003C2F88830704700ED00E05A
:10024C0082B0019000E000BF019B5A1E0192002B6E
:10025C00F9D102B07047000038B505460024042CD3
:10026C0009DC074B1B692B4207D14CF25030FFF7CE
:10027C00E7FF0134F3E7012038BD0020FCE700BFA5
:10028C000004024008B500F091F800F0D9F8414A9A
:10029C00936943F0806393611AE03F4B01221A701B
:1002AC003E4A1378B3FA83F35B0913704FF4FA7078
:1002BC00FFF7C6FF11E0374B9A6942F400629A616E
:1002CC009A6942F480529A6141F28830FFF7B8FF84
:1002DC004020FFF7C1FF0028DFD12F4B00221A70FE
:1002EC002E4B1B784BBB00F0E3F84FF48060FFF70C
:1002FC00B3FF0028ECD02A4A13780133DBB2137019
:10030C00022BD8D0032B0BD0012BDDD1214B9A69BA
:10031C0042F400629A619A6942F080529A61D3E782
:10032C001F4B00221A701B4B9A6942F000629A61B3
:10033C009A6942F080529A61C6E700F0A1F8194A16
:10034C00D2F8183443F48061C2F8181443F00061F9
:10035C0041F48061C2F8181443F0C05343F4806335
:10036C00C2F818344020FFF777FF0028FAD00A4B68
:10037C0001221A700B4AD2F8183443F08063C2F889
:10038C00183400F095F8054B00221A700648FFF758
:10039C0057FF9DE7000402401D0000201C000020B8
:1003AC001E0000200000024020A10700214AD2F8C4
:1003BC00303843F00203C2F830381F4BD3F8002416
:1003CC0042F48002C3F80024D3F8082442F48002DB
:1003DC00C3F80824D3F8182442F00062C3F8182498
:1003EC00164A116821F0407141F08070106050681D
:1003FC0020F480505060906820F0407040F0807085
:10040C009060906920F080509061D06820F040702E
:10041C00D06041F08241C3F80014D3F8082442F0B4
:10042C008042C3F80824D3F80C2442F00042C3F8ED
:10043C000C247047003002400000024000040240CF
:10044C000D4B1A6B42F002021A631B6B0B4B1A68B2
:10045C0022F440121A60DA6822F4401242F40012BC
:10046C00DA601A6822F440521A60DA6822F44052B8
:10047C0042F40052DA607047003802400004024037
:10048C000A4B1A6822F4401242F480121A605A681D
:10049C0022F480625A609A6822F4401242F480126C
:1004AC009A60DA6822F44012DA6070470004024065
:1004BC00054A136823F440131360D36823F44013E4
:1004CC0043F40013D360704700040240DFF834D0CB
:1004DC000D480E490E4A002302E0D458C450043390
:1004EC00C4188C42F9D30B4A0B4C002301E0136067
:1004FC000432A242FBD3FFF799FE00F011F8FFF78C
:10050C00C1FE704700000320000000200000002006
:10051C00940500080000002020000020FEE70000E9
:10052C0070B50D4B0D4D5B1B9C100026A64209D1DE
:10053C0000F01AF80A4D0B4B5B1B9C100026A642D0
:10054C0005D170BD55F8043B98470136EEE755F8D8
:10055C00043B98470136F2E78C0500088C0500082F
:10056C008C05000890050008F8B500BFF8BC08BC65
:10057C009E467047F8B500BFF8BC08BC9E46704755
:04058C00150200084C
:04059000ED01000871
:04000005080004D912
:00000001FF
