:020000040800F2
:10000000000003201D0300086D0300086D030008B5
:100010006D0300086D0300086D0300080000000078
:100020000000000000000000000000006D03000858
:100030006D030008000000006D0300086D03000858
:100040006D0300086D0300086D0300086D030008D0
:100050006D0300086D0300086D0300086D030008C0
:100060006D0300086D0300086D0300086D030008B0
:100070006D0300086D0300086D0300086D030008A0
:100080006D0300086D0300086D0300086D03000890
:100090006D0300086D0300086D0300086D03000880
:1000A0006D0300086D0300086D0300086D03000870
:1000B0006D0300086D0300086D0300086D03000860
:1000C0006D0300086D0300086D0300086D03000850
:1000D0006D0300086D0300086D0300086D03000840
:1000E0006D0300086D0300086D0300086D03000830
:1000F0006D0300086D0300086D0300086D03000820
:100100006D0300086D0300086D0300086D0300080F
:100110006D0300086D0300086D0300086D030008FF
:100120006D0300086D0300086D0300086D030008EF
:100130006D0300086D0300086D0300086D030008DF
:100140006D0300086D0300086D0300086D030008CF
:100150006D0300086D0300086D0300086D030008BF
:100160006D0300086D0300086D0300086D030008AF
:100170006D0300086D0300086D0300080000000017
:100180006D0300086D0300086D0300086D0300088F
:100190006D0300086D0300086D0300086D0300087F
:0C01A0006D0300086D0300086D030008EB
:1001AC000348044B834202D0034B03B118477047FA
:1001BC000000002000000020000000000548064B55
:1001CC001B1AD90F01EBA301491002D0034B03B149
:1001DC0018477047000000200000002000000000BD
:1001EC0010B5064C237843B9FFF7DAFF044B13B173
:1001FC000448AFF300800123237010BD00000020E1
:10020C0000000000B803000808B5054B1BB10549F8
:10021C000548AFF30080BDE80840FFF7CFBF00BF33
:10022C000000000004000020B8030008034AD2F8C4
:10023C00883043F47003C2F88830704700ED00E05A
:10024C0008B500F025F800F043F806E043F400038D
:10025C0043F480430D4AC2F818340C4AD2F81834CF
:10026C0043F48041C2F81814D2F8102812F4005F3D
:10027C00ECD0064A43F48141C2F8181443F04023F1
:10028C0043F08003C2F81834E7E700BF00000240D7
:10029C000D4AD2F8303843F00603C2F830380B4B15
:1002AC00D3F8002442F48042C3F80024D3F8082485
:1002BC0042F48042C3F80824D3F8182442F4000214
:1002CC00C3F81824704700BF003002400000024001
:1002DC000D4AD2F8303843F00603C2F830380B4BD5
:1002EC00D3F8002442F08052C3F80024D3F8082439
:1002FC0042F08052C3F80824D3F8182442F080420C
:10030C00C3F81824704700BF0030024000000240C0
:10031C00DFF834D00D480E490E4A002302E0D458C1
:10032C00C4500433C4188C42F9D30B4A0B4C002331
:10033C0001E013600432A242FBD3FFF777FF00F019
:10034C0011F8FFF77DFF704700000320000000202C
:10035C0000000020D8030008000000201C00002032
:10036C00FEE7000070B50D4B0D4D5B1B9C1000267D
:10037C00A64209D100F01AF80A4D0B4B5B1B9C10DE
:10038C000026A64205D170BD55F8043B98470136AE
:10039C00EEE755F8043B98470136F2E7D003000826
:1003AC00D0030008D0030008D4030008F8B500BF40
:1003BC00F8BC08BC9E467047F8B500BFF8BC08BC3A
:0403CC009E46704792
:0403D000150200080A
:0403D400ED0100082F
:040000050800031DCF
:00000001FF
