:020000040800F2
:10000000000003204905000899050008990500082B
:1000100099050008990500089905000800000000EE
:10002000000000000000000000000000990500082A
:1000300099050008000000009905000899050008CE
:100040009905000899050008990500089905000818
:100050009905000899050008990500089905000808
:1000600099050008990500089905000899050008F8
:1000700099050008990500089905000899050008E8
:1000800099050008990500089905000899050008D8
:1000900099050008990500089905000899050008C8
:1000A00099050008990500089905000899050008B8
:1000B00099050008990500089905000899050008A8
:1000C0009905000899050008990500089905000898
:1000D0009905000899050008990500089905000888
:1000E0009905000899050008990500089905000878
:1000F0009905000899050008990500089905000868
:100100009905000899050008990500089905000857
:100110009905000899050008990500089905000847
:100120009905000899050008990500089905000837
:100130009905000899050008990500089905000827
:100140009905000899050008990500089905000817
:100150009905000899050008990500089905000807
:1001600099050008990500089905000899050008F7
:10017000990500089905000899050008000000008D
:1001800099050008990500089905000899050008D7
:1001900099050008990500089905000899050008C7
:0C01A00099050008990500089905000861
:1001AC000348044B834202D0034B03B118477047FA
:1001BC000800002008000020000000000548064B45
:1001CC001B1AD90F01EBA301491002D0034B03B149
:1001DC0018477047080000200800002000000000AD
:1001EC0010B5064C237843B9FFF7DAFF044B13B173
:1001FC000448AFF300800123237010BD08000020D9
:10020C0000000000E405000808B5054B1BB10549CA
:10021C000548AFF30080BDE80840FFF7CFBF00BF33
:10022C00000000000C000020E4050008034AD2F88E
:10023C00883043F47003C2F88830704700ED00E05A
:10024C0082B0019000E000BF019B5A1E0192002B6E
:10025C00F9D102B07047000038B505460C46164A75
:10026C00936903439361022915D0032917D00129FF
:10027C0002D11248FFF7E4FF0F4A936943EA0543A2
:10028C009361022C0FD0032C11D0012C02D10B48FE
:10029C00FFF7D6FF38BD0A48FFF7D2FFECE7094855
:1002AC00FFF7CEFFE8E70648FFF7CAFFF2E706487C
:1002BC00FFF7C6FFEEE700BF00040240A086010076
:1002CC0020A10700A025260090D0030008B500F05F
:1002DC00D5F800F0F7F800F015F900F0A9F844E0B3
:1002EC00494B1B78042B09D948490120087048490F
:1002FC000978022947D8014445480170013BDBB21B
:10030C00032B06D8434B1B78022B40D801334149B1
:10031C000B7000233C490B703F490B703B490B7031
:10032C0012F4005F11D03D4B01221A70384B1B7830
:10033C00022B34D0032B3ED0934206D1384B1B7882
:10034C00022B28D81344364A1370344B00221A70EF
:10035C00304B1B78022B3AD0032B43D0012B04D10A
:10036C002F4B19780120FFF777FF2E4BD3F810286D
:10037C0012F4805FB4D0254B0121197022490B78FF
:10038C0001330B70CCE7224901200870B6E7214BF2
:10039C0001211970BDE7224B01221A70D5E7224BBF
:1003AC001B78022B03D801331F4A1370CDE71E4B69
:1003BC0001221A70C9E71D4B1B78022B03D801339D
:1003CC001A4A1370C1E7194B01221A70BDE7144B7E
:1003DC0019780120FFF740FF134B19788020FFF7A5
:1003EC003BFFC2E70E4B19780120FFF735FF0E4B90
:1003FC0019788020FFF730FF0C4B19784FF48040B0
:10040C00FFF72AFFB1E700BF2400002027000020DF
:10041C0004000020030000202500002026000020FE
:10042C00020000200000024001000020000000201B
:10043C00104B1A6B42F002021A631A6B42F0040260
:10044C001A631B6B0C4A136823F440331360D36894
:10045C0023F4403343F40033D36002F58062136815
:10046C0023F040731360D36823F0407343F00073A0
:10047C00D360704700380240000402400F4AD2F8A3
:10048C00303843F00201C2F8301843F00603C2F8CA
:10049C0030380B4BD3F8002442F48042C3F80024CC
:1004AC00D3F8082442F48042C3F80824D3F8182463
:1004BC0042F40002C3F81824704700BF0030024019
:1004CC00000002400D4AD2F8303843F00603C2F85F
:1004DC0030380B4BD3F8002442F08052C3F8002480
:1004EC00D3F8082442F08052C3F80824D3F8182417
:1004FC0042F08042C3F81824704700BF003002401D
:10050C00000002400C4B1A6822F0030242F0010278
:10051C001A605A6822F001025A609A6822F00302AB
:10052C0042F001029A609A6922F480329A61DA6888
:10053C0022F00302DA60704700040240DFF834D086
:10054C000D480E490E4A002302E0D458C45004331F
:10055C00C4188C42F9D30B4A0B4C002301E01360F6
:10056C000432A242FBD3FFF761FE00F011F8FFF753
:10057C00ADFE7047000003200000002008000020A2
:10058C00040600080800002028000020FEE70000F8
:10059C0070B50D4B0D4D5B1B9C100026A64209D16E
:1005AC0000F01AF80A4D0B4B5B1B9C100026A64260
:1005BC0005D170BD55F8043B98470136EEE755F868
:1005CC00043B98470136F2E7FC050008FC050008DF
:1005DC00FC05000800060008F8B500BFF8BC08BC14
:1005EC009E467047F8B500BFF8BC08BC9E467047E5
:0405FC0015020008DC
:04060000ED01000800
:080604000101010101000000E9
:0400000508000549A1
:00000001FF
