:020000040800F2
:10000000000003201D0700086D0700086D070008A9
:100010006D0700086D0700086D070008000000006C
:100020000000000000000000000000006D07000854
:100030006D070008000000006D070008F1060008C9
:100040006D0700086D0700086D0700086D070008C0
:100050006D0700086D0700086D0700086D070008B0
:100060006D0700086D0700086D0700086D070008A0
:100070006D0700086D0700086D0700086D07000890
:100080006D0700086D0700086D0700086D07000880
:100090006D0700086D0700086D0700086D07000870
:1000A0006D0700086D0700086D0700086D07000860
:1000B0006D0700086D0700086D0700086D07000850
:1000C0006D0700086D0700086D0700086D07000840
:1000D0006D0700086D0700086D0700086D07000830
:1000E000810600086D0700086D0700086D0700080D
:1000F0006D0700086D0700086D0700086D07000810
:100100006D0700086D0700086D0700086D070008FF
:100110006D0700086D0700086D0700086D070008EF
:100120006D0700086D0700086D0700086D070008DF
:100130006D0700086D0700086D0700086D070008CF
:100140006D0700086D0700086D0700086D070008BF
:100150006D0700086D0700086D0700086D070008AF
:100160006D0700086D0700086D0700086D0700089F
:100170006D0700086D0700086D070008000000000B
:100180006D0700086D0700086D0700086D0700087F
:100190006D0700086D0700086D0700086D0700086F
:0C01A0006D0700086D0700086D070008DF
:1001AC000348044B834202D0034B03B118477047FA
:1001BC000000002000000020000000000548064B55
:1001CC001B1AD90F01EBA301491002D0034B03B149
:1001DC0018477047000000200000002000000000BD
:1001EC0010B5064C237843B9FFF7DAFF044B13B173
:1001FC000448AFF300800123237010BD00000020E1
:10020C0000000000B807000808B5054B1BB10549F4
:10021C000548AFF30080BDE80840FFF7CFBF00BF33
:10022C000000000004000020B8070008034AD2F8C0
:10023C00883043F47003C2F88830704700ED00E05A
:10024C0038B50546054CA3690343A361084600F085
:10025C0057FAA36943EA0543A36138BD0004024081
:10026C0070B506460D46094CA3690343A361A36907
:10027C000B43A361104600F043FAA36943EA06431B
:10028C00A361A36943EA0543A36170BD0004024066
:10029C0010B58AB0DFF8B0E004ACF446BCE80F004F
:1002AC000FC49CE8030084E803000EF1180393E8E4
:1002BC0003000290ADF80C100EF1200E9EE8030026
:1002CC000090ADF8041000F061F800F0FBF800F0BD
:1002DC0023F900F07FF900F0B1F910E0184B1B780E
:1002EC000AAA02EB430302EB840213F8201C52F817
:1002FC00180CFFF7A5FF0134E4B2052CEED9114B15
:10030C001B78012B03D0022BF9D1002415E000241B
:10031C00F3E7E31C0A4A12780AA901EB420201EB4B
:10032C00830301EB840012F8282C53F8181C50F8A6
:10033C00180CFFF795FF0134E4B2052CE9D9DEE780
:10034C001E0000201F000020D007000800B500F0A0
:10035C000700C0F1070CBCF1040F28BF4FF0040CD0
:10036C00031D062B0FD9C31E4FF0FF3E0EFA0CF0E7
:10037C0021EA000199400EFA03FE22EA0E0241EA3C
:10038C0002005DF804FB0023EEE700004B4B1A6BF8
:10039C0042F006021A631B6B494B1A6822F00302E7
:1003AC0042F001021A605A6822F001025A609A68FF
:1003BC0022F0030242F001029A609A6922F4803220
:1003CC009A61DA6822F00302DA601A6822F4404279
:1003DC0042F480421A605A6822F080025A609A688D
:1003EC0022F4404242F480429A609A6922F400025C
:1003FC009A61DA6822F44042DA601A6822F04052BC
:10040C0042F080521A605A6822F480425A609A680C
:10041C0022F0405242F080529A609A6922F0804257
:10042C009A61DA6822F04052DA601A6822F440329B
:10043C0042F480321A605A6822F480725A609A68C8
:10044C0022F4403242F480329A609A6922F080722F
:10045C009A61DA6822F44032DA601A6822F44002B7
:10046C0042F480021A605A6822F400625A609A6858
:10047C0022F4400242F480029A609A6922F00062EF
:10048C009A61DA6822F44002DA601A6822F44012A7
:10049C0042F480121A605A6822F480625A609A6898
:1004AC0022F4401242F480129A609A6922F080621F
:1004BC009A61DA6822F44012DA6070470038024020
:1004CC0000040240134A136823F0F80343F080033E
:1004DC001360002393600F4B9B6813F00C0FFAD141
:1004EC000C4A136823F0807313600A4B1B6813F0DB
:1004FC00007FFAD1074A136823F410231360054BCD
:10050C001B6813F4003FFAD1024A136823F48023CA
:10051C0013607047003802402C4A136843F4803350
:10052C0013602A4B1B6813F4003FFAD0274B1A6850
:10053C0022F480221A601A6842F400221A60002207
:10054C005A605A6842F480025A605A6822F03F029C
:10055C0042F004025A605A686FF38E1242F434521D
:10056C005A605A6822F440325A601A6842F080721B
:10057C001A60164B1B6813F0007FFAD1134B9A6864
:10058C0022F0030242F002029A609A6822F0F00212
:10059C009A609A6822F4E05242F4A0529A609A68E7
:1005AC0022F4604242F400429A609A6842F060522F
:1005BC009A609A6822F040429A60054A136823F0C8
:1005CC000F0343F005031360704700BF003802406F
:1005DC00003C024008B5154A536C43F48043536405
:1005EC00A2F58032536923F0F00343F020035361EA
:1005FC000F4B1A6842F400521A609A6842F4005287
:10060C009A60DA6842F40052DA600A4BD868002229
:10061C001146C0F30220FFF799FE0001C0B2064B51
:10062C0083F828034FF480725A6008BD00380240EA
:10063C00003C014000ED00E000E100E04FF0E02361
:10064C001A6922F001021A611A6942F002021A6157
:10065C001A6942F004021A615A6902F07F425A6127
:10066C009A6902F07F429A611A6942F001021A619A
:10067C0070470000154A536943F400535361144BFF
:10068C001B88092B09D9134A13780133DBB2137079
:10069C000F4A00211180012B0ED00E4B1B78012B21
:1006AC0009D90C4B00221A700B4B1B78012B08D963
:1006BC00094B01221A707047084B1A88084B1A8094
:1006CC00EBE70133044A1370704700BF003C014054
:1006DC0022000020240000201F0000202000002009
:1006EC001C000020044A138801331380034A13882A
:1006FC0001331380704700BF22000020200000202F
:10070C004FF47A7300FB03F3002BF9D17047000010
:10071C00DFF834D00D480E490E4A002302E0D458BD
:10072C00C4500433C4188C42F9D30B4A0B4C00232D
:10073C0001E013600432A242FBD3FFF777FD00F017
:10074C0011F8FFF7A5FD7047000003200000002002
:10075C0000000020000800080000002028000020F5
:10076C00FEE7000070B50D4B0D4D5B1B9C10002679
:10077C00A64209D100F01AF80A4D0B4B5B1B9C10DA
:10078C000026A64205D170BD55F8043B98470136AA
:10079C00EEE755F8043B98470136F2E7F8070008F6
:1007AC00F8070008F8070008FC070008F8B500BFB8
:1007BC00F8BC08BC9E467047F8B500BFF8BC08BC36
:0407CC009E4670478E
:1007D0000100000080000000004000000001000057
:1007E000000400000008000090016C07280A0000C7
:0807F0002C014006FC0800008A
:0407F80015020008DE
:0407FC00ED01000803
:040000050800071DCB
:00000001FF
