:020000040800F2
:1000000000000320A9040008F9040008F90400080E
:10001000F9040008F9040008F904000800000000D1
:10002000000000000000000000000000F9040008CB
:10003000F904000800000000F9040008F9040008B1
:10004000F9040008F9040008F9040008F90400089C
:10005000F9040008F9040008F9040008F90400088C
:10006000F9040008F9040008F9040008F90400087C
:10007000F9040008F9040008F9040008F90400086C
:10008000F9040008F9040008F9040008F90400085C
:10009000F9040008F9040008F9040008F90400084C
:1000A000F9040008F9040008F9040008F90400083C
:1000B000F9040008F9040008F9040008F90400082C
:1000C000F9040008F9040008F9040008F90400081C
:1000D000F9040008F9040008F9040008F90400080C
:1000E000F9040008F9040008F9040008F9040008FC
:1000F000F9040008F9040008F9040008F9040008EC
:10010000F9040008F9040008F9040008F9040008DB
:10011000F9040008F9040008F9040008F9040008CB
:10012000F9040008F9040008F9040008F9040008BB
:10013000F9040008F9040008F9040008F9040008AB
:10014000F9040008F9040008F9040008F90400089B
:10015000F9040008F9040008F9040008F90400088B
:10016000F9040008F9040008F9040008F90400087B
:10017000F9040008F9040008F90400080000000070
:10018000F9040008F9040008F9040008F90400085B
:10019000F9040008F9040008F9040008F90400084B
:0C01A000F9040008F9040008F904000844
:1001AC000348044B834202D0034B03B118477047FA
:1001BC000000002000000020000000000548064B55
:1001CC001B1AD90F01EBA301491002D0034B03B149
:1001DC0018477047000000200000002000000000BD
:1001EC0010B5064C237843B9FFF7DAFF044B13B173
:1001FC000448AFF300800123237010BD00000020E1
:10020C00000000004405000808B5054B1BB105496A
:10021C000548AFF30080BDE80840FFF7CFBF00BF33
:10022C00000000000400002044050008034AD2F836
:10023C00883043F47003C2F88830704700ED00E05A
:10024C0082B0019000E000BF019B5A1E0192002B6E
:10025C00F9D102B07047000038B505460024042CD3
:10026C0009DC074B1B692B4207D040F6B830FFF76F
:10027C00E7FF0134F3E7012038BD0020FCE700BFA5
:10028C000004024070B500F07DF800F0C1F80024C5
:10029C0025461AE04020FFF7DFFFE8B185F00105A5
:1002AC003548FFF7CDFF17E0344AD2F8183443F441
:1002BC008051C2F8181443F0006343F48053C2F821
:1002CC0018342D48FFF7BCFF34462D4B1A691A69B8
:1002DC001B6913F0400FDDD1F5B900F0D1F8284BB4
:1002EC001B6913F4806FF0D04FF48060FFF7B4FFFC
:1002FC000028EAD084F00106002CD5D11F4AD2F890
:10030C00183443F40061C2F8181443F0805343F4DA
:10031C000063C2F81834D4E700F09AF8174AD2F800
:10032C00183443F48061C2F8181443F0006141F4AE
:10033C008061C2F8181443F0C05343F48063C2F8D0
:10034C0018340F4B1A691A691B6913F0400FF8D057
:10035C004020FFF781FF0028F3D0084AD2F8183468
:10036C0043F08063C2F8183400F08AF80248FFF7B3
:10037C0067FF0025A9E700BF20A10700000002408D
:10038C00000402401F4AD2F8303843F00203C2F88E
:10039C0030381D4BD3F8002442F48002C3F80024FB
:1003AC00D3F8082442F48002C3F80824D3F81824A4
:1003BC0042F00062C3F81824144A116821F040710D
:1003CC0041F080701060506820F48050506090684C
:1003DC0020F0407040F080709060D06820F0407049
:1003EC00D06041F08241C3F80014D3F8082442F0E5
:1003FC008042C3F80824D3F80C2442F00042C3F81E
:10040C000C247047003002400000024000040240FF
:10041C000D4B1A6B42F002021A631B6B0B4B1A68E2
:10042C0022F440121A60DA6822F4401242F40012EC
:10043C00DA601A6822F440521A60DA6822F44052E8
:10044C0042F40052DA607047003802400004024067
:10045C000A4B1A6822F4401242F480121A605A684D
:10046C0022F480625A609A6822F4401242F480129C
:10047C009A60DA6822F44012DA6070470004024095
:10048C00054A136823F440131360D36823F4401314
:10049C0043F40013D360704700040240DFF834D0FB
:1004AC000D480E490E4A002302E0D458C4500433C0
:1004BC00C4188C42F9D30B4A0B4C002301E0136097
:1004CC000432A242FBD3FFF7B1FE00F011F8FFF7A4
:1004DC00D9FE70470000032000000020000000201F
:1004EC0064050008000000201C000020FEE700004E
:1004FC0070B50D4B0D4D5B1B9C100026A64209D10F
:10050C0000F01AF80A4D0B4B5B1B9C100026A64200
:10051C0005D170BD55F8043B98470136EEE755F808
:10052C00043B98470136F2E75C0500085C050008BF
:10053C005C05000860050008F8B500BFF8BC08BCF5
:10054C009E467047F8B500BFF8BC08BC9E46704785
:04055C00150200087C
:04056000ED010008A1
:04000005080004A942
:00000001FF
