:020000040800F2
:1000000000000320C50500081506000815060008B5
:100010001506000815060008150600080000000077
:1000200000000000000000000000000015060008AD
:100030001506000800000000150600081506000857
:100040001506000815060008150600081506000824
:100050001506000815060008150600081506000814
:100060001506000815060008150600081506000804
:1000700015060008150600081506000815060008F4
:100080001506000815060008990500081506000861
:1000900015060008150600081506000815060008D4
:1000A00015060008150600081506000815060008C4
:1000B00015060008150600081506000815060008B4
:1000C00015060008150600081506000815060008A4
:1000D0001506000815060008150600081506000894
:1000E0001506000815060008150600081506000884
:1000F0001506000815060008150600081506000874
:100100001506000815060008150600081506000863
:100110001506000815060008150600081506000853
:100120001506000815060008150600081506000843
:100130001506000815060008150600081506000833
:100140001506000815060008150600081506000823
:100150001506000815060008150600081506000813
:100160001506000815060008150600081506000803
:100170001506000815060008150600080000000016
:1001800015060008150600081506000815060008E3
:1001900015060008150600081506000815060008D3
:0C01A000150600081506000815060008EA
:1001AC000348044B834202D0034B03B118477047FA
:1001BC000000002000000020000000000548064B55
:1001CC001B1AD90F01EBA301491002D0034B03B149
:1001DC0018477047000000200000002000000000BD
:1001EC0010B5064C237843B9FFF7DAFF044B13B173
:1001FC000448AFF300800123237010BD00000020E1
:10020C00000000006006000808B5054B1BB105494D
:10021C000548AFF30080BDE80840FFF7CFBF00BF33
:10022C00000000000400002060060008034AD2F819
:10023C00883043F47003C2F88830704700ED00E05A
:10024C0008B500F089F800F065F900F0F1F800F05D
:10025C008BF93A4A936843F08043936000234FF044
:10026C0080425362364A1360364A1380364A1380F2
:10027C002FE0354B00221A8031E0002313604FF041
:10028C008042536242E0314A002151639163022B58
:10029C0013D92D4A12882E494A63032B10D92C49A5
:1002AC008A63042B0FD92A49CA63052B0ED9284B14
:1002BC001A640EE0254B00229A63254B00225A63E8
:1002CC00234B00229A63224B0022DA63204B00223C
:1002DC001A641C4B1B88002BCBD01B4A13801A4B67
:1002EC001B88B3F57A7F03D9174B4FF47A721A80B7
:1002FC004FF080435B6A124A1360C3F3C03202FAB8
:10030C0083F35B10134A1360002BB6DB114B1B6895
:10031C00062B06DD0F4B06221A604FF080430C2291
:10032C005A620C4B1B78002BADD0074A1288074938
:10033C004A63012BBED905498A63A8E70020014016
:10034C00280000202C0000201C0000200040014050
:10035C000000014020000020334A136B43F01303CC
:10036C001363324B1A6822F0030242F002021A6045
:10037C00DA6822F0030242F00102DA601A6A22F013
:10038C000F0242F001021A6203F580631A6822F030
:10039C00C00242F080021A60DA6822F0C00242F019
:1003AC004002DA601A6A22F4704242F480521A62F5
:1003BC001A6842F00C021A60DA6822F00C02DA6059
:1003CC0003F540631A6822F03C2222F44C021A60B6
:1003DC001A6842F0282242F408021A601A6A22F4BF
:1003EC00700242F440121A621A6A22F0706242F0F1
:1003FC0040721A625A6A22F0F00242F010025A62FB
:10040C005A6A22F4704242F480525A625A6A22F4B6
:10041C00700242F480125A625A6A22F0706242F000
:10042C0080725A62704700BF0038024000000240E0
:10043C0030B4374B1A6C42F001021A645A6C42F019
:10044C0001125A644FF0804300229A624FF0FF323F
:10045C00DA629A6922F4407222F0030242F480724A
:10046C0042F001029A619A6942F4704242F0F00241
:10047C009A619A6822F0070242F003029A601A68A5
:10048C0042F001021A6003F5A033B3259D6240F2DD
:10049C00E734DC629A6922F4E04222F0700246F200
:1004AC00600002439A619A6940F608010A439A6116
:1004BC001A6A42F011021A621A6842F081021A603A
:1004CC00A3F580439D62DC629A6922F4E04222F03B
:1004DC00700202439A61DA6922F4E04222F070025F
:1004EC000243DA619A690A439A61DA690A43DA616A
:1004FC001A6A42F4885242F011021A625A6C42F49F
:10050C0000425A641A6842F081021A6030BC70478B
:10051C0000380240114A536C43F480735364104BFF
:10052C009A6822F001029A600E494A6842F48032BD
:10053C004A60DA6A22F47002DA625A6B22F01F0205
:10054C0042F009025A631A6922F0605242F00052DA
:10055C001A619A6842F001029A60704700380240B2
:10056C000020014000230140064A536843F0200359
:10057C005360054B4FF480221A60002283F812233B
:10058C00704700BF0020014000E100E0074B012252
:10059C001A80074B9A6842F080429A60D96C054ADF
:1005AC0011801A6822F002021A60704724000020A1
:1005BC00002001402C000020DFF834D00D480E49FB
:1005CC000E4A002302E0D458C4500433C4188C42A1
:1005DC00F9D30B4A0B4C002301E013600432A24206
:1005EC00FBD3FFF723FE00F011F8FFF729FE70474D
:1005FC0000000320000000200000002080060008FE
:10060C000000002030000020FEE7000070B50D4B0C
:10061C000D4D5B1B9C100026A64209D100F01AF868
:10062C000A4D0B4B5B1B9C100026A64205D170BDDE
:10063C0055F8043B98470136EEE755F8043B9847CC
:10064C000136F2E7780600087806000878060008FC
:10065C007C060008F8B500BFF8BC08BC9E46704785
:0C066C00F8B500BFF8BC08BC9E46704703
:04067800150200085F
:04067C00ED01000884
:04000005080005C525
:00000001FF
